{
  "contractName": "Color",
  "abi": [
    {
      "inputs": [],
      "stateMutability": "nonpayable",
      "type": "constructor"
    },
    {
      "anonymous": false,
      "inputs": [
        {
          "indexed": true,
          "internalType": "address",
          "name": "owner",
          "type": "address"
        },
        {
          "indexed": true,
          "internalType": "address",
          "name": "approved",
          "type": "address"
        },
        {
          "indexed": true,
          "internalType": "uint256",
          "name": "tokenId",
          "type": "uint256"
        }
      ],
      "name": "Approval",
      "type": "event"
    },
    {
      "anonymous": false,
      "inputs": [
        {
          "indexed": true,
          "internalType": "address",
          "name": "owner",
          "type": "address"
        },
        {
          "indexed": true,
          "internalType": "address",
          "name": "operator",
          "type": "address"
        },
        {
          "indexed": false,
          "internalType": "bool",
          "name": "approved",
          "type": "bool"
        }
      ],
      "name": "ApprovalForAll",
      "type": "event"
    },
    {
      "anonymous": false,
      "inputs": [
        {
          "indexed": true,
          "internalType": "address",
          "name": "from",
          "type": "address"
        },
        {
          "indexed": true,
          "internalType": "address",
          "name": "to",
          "type": "address"
        },
        {
          "indexed": true,
          "internalType": "uint256",
          "name": "tokenId",
          "type": "uint256"
        }
      ],
      "name": "Transfer",
      "type": "event"
    },
    {
      "inputs": [
        {
          "internalType": "address",
          "name": "to",
          "type": "address"
        },
        {
          "internalType": "uint256",
          "name": "tokenId",
          "type": "uint256"
        }
      ],
      "name": "approve",
      "outputs": [],
      "stateMutability": "nonpayable",
      "type": "function"
    },
    {
      "inputs": [
        {
          "internalType": "address",
          "name": "owner",
          "type": "address"
        }
      ],
      "name": "balanceOf",
      "outputs": [
        {
          "internalType": "uint256",
          "name": "",
          "type": "uint256"
        }
      ],
      "stateMutability": "view",
      "type": "function",
      "constant": true
    },
    {
      "inputs": [
        {
          "internalType": "uint256",
          "name": "",
          "type": "uint256"
        }
      ],
      "name": "colors",
      "outputs": [
        {
          "internalType": "string",
          "name": "",
          "type": "string"
        }
      ],
      "stateMutability": "view",
      "type": "function",
      "constant": true
    },
    {
      "inputs": [
        {
          "internalType": "uint256",
          "name": "tokenId",
          "type": "uint256"
        }
      ],
      "name": "getApproved",
      "outputs": [
        {
          "internalType": "address",
          "name": "",
          "type": "address"
        }
      ],
      "stateMutability": "view",
      "type": "function",
      "constant": true
    },
    {
      "inputs": [
        {
          "internalType": "address",
          "name": "owner",
          "type": "address"
        },
        {
          "internalType": "address",
          "name": "operator",
          "type": "address"
        }
      ],
      "name": "isApprovedForAll",
      "outputs": [
        {
          "internalType": "bool",
          "name": "",
          "type": "bool"
        }
      ],
      "stateMutability": "view",
      "type": "function",
      "constant": true
    },
    {
      "inputs": [],
      "name": "name",
      "outputs": [
        {
          "internalType": "string",
          "name": "",
          "type": "string"
        }
      ],
      "stateMutability": "view",
      "type": "function",
      "constant": true
    },
    {
      "inputs": [
        {
          "internalType": "uint256",
          "name": "tokenId",
          "type": "uint256"
        }
      ],
      "name": "ownerOf",
      "outputs": [
        {
          "internalType": "address",
          "name": "",
          "type": "address"
        }
      ],
      "stateMutability": "view",
      "type": "function",
      "constant": true
    },
    {
      "inputs": [
        {
          "internalType": "address",
          "name": "from",
          "type": "address"
        },
        {
          "internalType": "address",
          "name": "to",
          "type": "address"
        },
        {
          "internalType": "uint256",
          "name": "tokenId",
          "type": "uint256"
        }
      ],
      "name": "safeTransferFrom",
      "outputs": [],
      "stateMutability": "nonpayable",
      "type": "function"
    },
    {
      "inputs": [
        {
          "internalType": "address",
          "name": "from",
          "type": "address"
        },
        {
          "internalType": "address",
          "name": "to",
          "type": "address"
        },
        {
          "internalType": "uint256",
          "name": "tokenId",
          "type": "uint256"
        },
        {
          "internalType": "bytes",
          "name": "_data",
          "type": "bytes"
        }
      ],
      "name": "safeTransferFrom",
      "outputs": [],
      "stateMutability": "nonpayable",
      "type": "function"
    },
    {
      "inputs": [
        {
          "internalType": "address",
          "name": "operator",
          "type": "address"
        },
        {
          "internalType": "bool",
          "name": "approved",
          "type": "bool"
        }
      ],
      "name": "setApprovalForAll",
      "outputs": [],
      "stateMutability": "nonpayable",
      "type": "function"
    },
    {
      "inputs": [
        {
          "internalType": "bytes4",
          "name": "interfaceId",
          "type": "bytes4"
        }
      ],
      "name": "supportsInterface",
      "outputs": [
        {
          "internalType": "bool",
          "name": "",
          "type": "bool"
        }
      ],
      "stateMutability": "view",
      "type": "function",
      "constant": true
    },
    {
      "inputs": [],
      "name": "symbol",
      "outputs": [
        {
          "internalType": "string",
          "name": "",
          "type": "string"
        }
      ],
      "stateMutability": "view",
      "type": "function",
      "constant": true
    },
    {
      "inputs": [
        {
          "internalType": "uint256",
          "name": "index",
          "type": "uint256"
        }
      ],
      "name": "tokenByIndex",
      "outputs": [
        {
          "internalType": "uint256",
          "name": "",
          "type": "uint256"
        }
      ],
      "stateMutability": "view",
      "type": "function",
      "constant": true
    },
    {
      "inputs": [
        {
          "internalType": "address",
          "name": "owner",
          "type": "address"
        },
        {
          "internalType": "uint256",
          "name": "index",
          "type": "uint256"
        }
      ],
      "name": "tokenOfOwnerByIndex",
      "outputs": [
        {
          "internalType": "uint256",
          "name": "",
          "type": "uint256"
        }
      ],
      "stateMutability": "view",
      "type": "function",
      "constant": true
    },
    {
      "inputs": [
        {
          "internalType": "uint256",
          "name": "tokenId",
          "type": "uint256"
        }
      ],
      "name": "tokenURI",
      "outputs": [
        {
          "internalType": "string",
          "name": "",
          "type": "string"
        }
      ],
      "stateMutability": "view",
      "type": "function",
      "constant": true
    },
    {
      "inputs": [],
      "name": "totalSupply",
      "outputs": [
        {
          "internalType": "uint256",
          "name": "",
          "type": "uint256"
        }
      ],
      "stateMutability": "view",
      "type": "function",
      "constant": true
    },
    {
      "inputs": [
        {
          "internalType": "address",
          "name": "from",
          "type": "address"
        },
        {
          "internalType": "address",
          "name": "to",
          "type": "address"
        },
        {
          "internalType": "uint256",
          "name": "tokenId",
          "type": "uint256"
        }
      ],
      "name": "transferFrom",
      "outputs": [],
      "stateMutability": "nonpayable",
      "type": "function"
    },
    {
      "inputs": [
        {
          "internalType": "string",
          "name": "_color",
          "type": "string"
        }
      ],
      "name": "mint",
      "outputs": [],
      "stateMutability": "nonpayable",
      "type": "function"
    }
  ],
  "bytecode": "0x60806040523480156200001157600080fd5b506040518060400160405280600581526020017f436f6c6f720000000000000000000000000000000000000000000000000000008152506040518060400160405280600581526020017f434f4c4f52000000000000000000000000000000000000000000000000000000815250816000908051906020019062000096929190620000b8565b508060019080519060200190620000af929190620000b8565b505050620001cd565b828054620000c69062000168565b90600052602060002090601f016020900481019282620000ea576000855562000136565b82601f106200010557805160ff191683800117855562000136565b8280016001018555821562000136579182015b828111156200013557825182559160200191906001019062000118565b5b50905062000145919062000149565b5090565b5b80821115620001645760008160009055506001016200014a565b5090565b600060028204905060018216806200018157607f821691505b602082108114156200019857620001976200019e565b5b50919050565b7f4e487b7100000000000000000000000000000000000000000000000000000000600052602260045260246000fd5b6131ca80620001dd6000396000f3fe608060405234801561001057600080fd5b50600436106101165760003560e01c80636352211e116100a2578063b88d4fde11610071578063b88d4fde14610305578063bd11f69d14610321578063c87b56dd14610351578063d85d3d2714610381578063e985e9c51461039d57610116565b80636352211e1461026b57806370a082311461029b57806395d89b41146102cb578063a22cb465146102e957610116565b806318160ddd116100e957806318160ddd146101b557806323b872dd146101d35780632f745c59146101ef57806342842e0e1461021f5780634f6ccce71461023b57610116565b806301ffc9a71461011b57806306fdde031461014b578063081812fc14610169578063095ea7b314610199575b600080fd5b6101356004803603810190610130919061221f565b6103cd565b604051610142919061267d565b60405180910390f35b610153610447565b6040516101609190612698565b60405180910390f35b610183600480360381019061017e91906122b2565b6104d9565b6040516101909190612616565b60405180910390f35b6101b360048036038101906101ae91906121e3565b61055e565b005b6101bd610676565b6040516101ca91906128ba565b60405180910390f35b6101ed60048036038101906101e891906120dd565b610683565b005b610209600480360381019061020491906121e3565b6106e3565b60405161021691906128ba565b60405180910390f35b610239600480360381019061023491906120dd565b610788565b005b610255600480360381019061025091906122b2565b6107a8565b60405161026291906128ba565b60405180910390f35b610285600480360381019061028091906122b2565b61083f565b6040516102929190612616565b60405180910390f35b6102b560048036038101906102b09190612078565b6108f1565b6040516102c291906128ba565b60405180910390f35b6102d36109a9565b6040516102e09190612698565b60405180910390f35b61030360048036038101906102fe91906121a7565b610a3b565b005b61031f600480360381019061031a919061212c565b610bbc565b005b61033b600480360381019061033691906122b2565b610c1e565b6040516103489190612698565b60405180910390f35b61036b600480360381019061036691906122b2565b610cca565b6040516103789190612698565b60405180910390f35b61039b60048036038101906103969190612271565b610d71565b005b6103b760048036038101906103b291906120a1565b610e2c565b6040516103c4919061267d565b60405180910390f35b60007f780e9d63000000000000000000000000000000000000000000000000000000007bffffffffffffffffffffffffffffffffffffffffffffffffffffffff1916827bffffffffffffffffffffffffffffffffffffffffffffffffffffffff19161480610440575061043f82610ec0565b5b9050919050565b60606000805461045690612b10565b80601f016020809104026020016040519081016040528092919081815260200182805461048290612b10565b80156104cf5780601f106104a4576101008083540402835291602001916104cf565b820191906000526020600020905b8154815290600101906020018083116104b257829003601f168201915b5050505050905090565b60006104e482610fa2565b610523576040517f08c379a000000000000000000000000000000000000000000000000000000000815260040161051a906127fa565b60405180910390fd5b6004600083815260200190815260200160002060009054906101000a900473ffffffffffffffffffffffffffffffffffffffff169050919050565b60006105698261083f565b90508073ffffffffffffffffffffffffffffffffffffffff168373ffffffffffffffffffffffffffffffffffffffff1614156105da576040517f08c379a00000000000000000000000000000000000000000000000000000000081526004016105d19061285a565b60405180910390fd5b8073ffffffffffffffffffffffffffffffffffffffff166105f961100e565b73ffffffffffffffffffffffffffffffffffffffff16148061062857506106278161062261100e565b610e2c565b5b610667576040517f08c379a000000000000000000000000000000000000000000000000000000000815260040161065e9061277a565b60405180910390fd5b6106718383611016565b505050565b6000600880549050905090565b61069461068e61100e565b826110cf565b6106d3576040517f08c379a00000000000000000000000000000000000000000000000000000000081526004016106ca9061287a565b60405180910390fd5b6106de8383836111ad565b505050565b60006106ee836108f1565b821061072f576040517f08c379a0000000000000000000000000000000000000000000000000000000008152600401610726906126ba565b60405180910390fd5b600660008473ffffffffffffffffffffffffffffffffffffffff1673ffffffffffffffffffffffffffffffffffffffff168152602001908152602001600020600083815260200190815260200160002054905092915050565b6107a383838360405180602001604052806000815250610bbc565b505050565b60006107b2610676565b82106107f3576040517f08c379a00000000000000000000000000000000000000000000000000000000081526004016107ea9061289a565b60405180910390fd5b6008828154811061082d577f4e487b7100000000000000000000000000000000000000000000000000000000600052603260045260246000fd5b90600052602060002001549050919050565b6000806002600084815260200190815260200160002060009054906101000a900473ffffffffffffffffffffffffffffffffffffffff169050600073ffffffffffffffffffffffffffffffffffffffff168173ffffffffffffffffffffffffffffffffffffffff1614156108e8576040517f08c379a00000000000000000000000000000000000000000000000000000000081526004016108df906127ba565b60405180910390fd5b80915050919050565b60008073ffffffffffffffffffffffffffffffffffffffff168273ffffffffffffffffffffffffffffffffffffffff161415610962576040517f08c379a00000000000000000000000000000000000000000000000000000000081526004016109599061279a565b60405180910390fd5b600360008373ffffffffffffffffffffffffffffffffffffffff1673ffffffffffffffffffffffffffffffffffffffff168152602001908152602001600020549050919050565b6060600180546109b890612b10565b80601f01602080910402602001604051908101604052809291908181526020018280546109e490612b10565b8015610a315780601f10610a0657610100808354040283529160200191610a31565b820191906000526020600020905b815481529060010190602001808311610a1457829003601f168201915b5050505050905090565b610a4361100e565b73ffffffffffffffffffffffffffffffffffffffff168273ffffffffffffffffffffffffffffffffffffffff161415610ab1576040517f08c379a0000000000000000000000000000000000000000000000000000000008152600401610aa89061273a565b60405180910390fd5b8060056000610abe61100e565b73ffffffffffffffffffffffffffffffffffffffff1673ffffffffffffffffffffffffffffffffffffffff16815260200190815260200160002060008473ffffffffffffffffffffffffffffffffffffffff1673ffffffffffffffffffffffffffffffffffffffff16815260200190815260200160002060006101000a81548160ff0219169083151502179055508173ffffffffffffffffffffffffffffffffffffffff16610b6b61100e565b73ffffffffffffffffffffffffffffffffffffffff167f17307eab39ab6107e8899845ad3d59bd9653f200f220920489ca2b5937696c3183604051610bb0919061267d565b60405180910390a35050565b610bcd610bc761100e565b836110cf565b610c0c576040517f08c379a0000000000000000000000000000000000000000000000000000000008152600401610c039061287a565b60405180910390fd5b610c1884848484611409565b50505050565b600a8181548110610c2e57600080fd5b906000526020600020016000915090508054610c4990612b10565b80601f0160208091040260200160405190810160405280929190818152602001828054610c7590612b10565b8015610cc25780601f10610c9757610100808354040283529160200191610cc2565b820191906000526020600020905b815481529060010190602001808311610ca557829003601f168201915b505050505081565b6060610cd582610fa2565b610d14576040517f08c379a0000000000000000000000000000000000000000000000000000000008152600401610d0b9061283a565b60405180910390fd5b6000610d1e611465565b90506000815111610d3e5760405180602001604052806000815250610d69565b80610d488461147c565b604051602001610d599291906125f2565b6040516020818303038152906040525b915050919050565b600b81604051610d8191906125db565b908152602001604051809103902060009054906101000a900460ff1615610da757600080fd5b600a81908060018154018082558091505060019003906000526020600020016000909190919091509080519060200190610de2929190611e9c565b50610df233600a80549050611629565b6001600b82604051610e0491906125db565b908152602001604051809103902060006101000a81548160ff02191690831515021790555050565b6000600560008473ffffffffffffffffffffffffffffffffffffffff1673ffffffffffffffffffffffffffffffffffffffff16815260200190815260200160002060008373ffffffffffffffffffffffffffffffffffffffff1673ffffffffffffffffffffffffffffffffffffffff16815260200190815260200160002060009054906101000a900460ff16905092915050565b60007f80ac58cd000000000000000000000000000000000000000000000000000000007bffffffffffffffffffffffffffffffffffffffffffffffffffffffff1916827bffffffffffffffffffffffffffffffffffffffffffffffffffffffff19161480610f8b57507f5b5e139f000000000000000000000000000000000000000000000000000000007bffffffffffffffffffffffffffffffffffffffffffffffffffffffff1916827bffffffffffffffffffffffffffffffffffffffffffffffffffffffff1916145b80610f9b5750610f9a826117f7565b5b9050919050565b60008073ffffffffffffffffffffffffffffffffffffffff166002600084815260200190815260200160002060009054906101000a900473ffffffffffffffffffffffffffffffffffffffff1673ffffffffffffffffffffffffffffffffffffffff1614159050919050565b600033905090565b816004600083815260200190815260200160002060006101000a81548173ffffffffffffffffffffffffffffffffffffffff021916908373ffffffffffffffffffffffffffffffffffffffff160217905550808273ffffffffffffffffffffffffffffffffffffffff166110898361083f565b73ffffffffffffffffffffffffffffffffffffffff167f8c5be1e5ebec7d5bd14f71427d1e84f3dd0314c0f7b2291e5b200ac8c7c3b92560405160405180910390a45050565b60006110da82610fa2565b611119576040517f08c379a00000000000000000000000000000000000000000000000000000000081526004016111109061275a565b60405180910390fd5b60006111248361083f565b90508073ffffffffffffffffffffffffffffffffffffffff168473ffffffffffffffffffffffffffffffffffffffff16148061119357508373ffffffffffffffffffffffffffffffffffffffff1661117b846104d9565b73ffffffffffffffffffffffffffffffffffffffff16145b806111a457506111a38185610e2c565b5b91505092915050565b8273ffffffffffffffffffffffffffffffffffffffff166111cd8261083f565b73ffffffffffffffffffffffffffffffffffffffff1614611223576040517f08c379a000000000000000000000000000000000000000000000000000000000815260040161121a9061281a565b60405180910390fd5b600073ffffffffffffffffffffffffffffffffffffffff168273ffffffffffffffffffffffffffffffffffffffff161415611293576040517f08c379a000000000000000000000000000000000000000000000000000000000815260040161128a9061271a565b60405180910390fd5b61129e838383611861565b6112a9600082611016565b6001600360008573ffffffffffffffffffffffffffffffffffffffff1673ffffffffffffffffffffffffffffffffffffffff16815260200190815260200160002060008282546112f99190612a26565b925050819055506001600360008473ffffffffffffffffffffffffffffffffffffffff1673ffffffffffffffffffffffffffffffffffffffff1681526020019081526020016000206000828254611350919061299f565b92505081905550816002600083815260200190815260200160002060006101000a81548173ffffffffffffffffffffffffffffffffffffffff021916908373ffffffffffffffffffffffffffffffffffffffff160217905550808273ffffffffffffffffffffffffffffffffffffffff168473ffffffffffffffffffffffffffffffffffffffff167fddf252ad1be2c89b69c2b068fc378daa952ba7f163c4a11628f55a4df523b3ef60405160405180910390a4505050565b6114148484846111ad565b61142084848484611975565b61145f576040517f08c379a0000000000000000000000000000000000000000000000000000000008152600401611456906126da565b60405180910390fd5b50505050565b606060405180602001604052806000815250905090565b606060008214156114c4576040518060400160405280600181526020017f30000000000000000000000000000000000000000000000000000000000000008152509050611624565b600082905060005b600082146114f65780806114df90612b73565b915050600a826114ef91906129f5565b91506114cc565b60008167ffffffffffffffff811115611538577f4e487b7100000000000000000000000000000000000000000000000000000000600052604160045260246000fd5b6040519080825280601f01601f19166020018201604052801561156a5781602001600182028036833780820191505090505b5090505b6000851461161d576001826115839190612a26565b9150600a856115929190612bbc565b603061159e919061299f565b60f81b8183815181106115da577f4e487b7100000000000000000000000000000000000000000000000000000000600052603260045260246000fd5b60200101907effffffffffffffffffffffffffffffffffffffffffffffffffffffffffffff1916908160001a905350600a8561161691906129f5565b945061156e565b8093505050505b919050565b600073ffffffffffffffffffffffffffffffffffffffff168273ffffffffffffffffffffffffffffffffffffffff161415611699576040517f08c379a0000000000000000000000000000000000000000000000000000000008152600401611690906127da565b60405180910390fd5b6116a281610fa2565b156116e2576040517f08c379a00000000000000000000000000000000000000000000000000000000081526004016116d9906126fa565b60405180910390fd5b6116ee60008383611861565b6001600360008473ffffffffffffffffffffffffffffffffffffffff1673ffffffffffffffffffffffffffffffffffffffff168152602001908152602001600020600082825461173e919061299f565b92505081905550816002600083815260200190815260200160002060006101000a81548173ffffffffffffffffffffffffffffffffffffffff021916908373ffffffffffffffffffffffffffffffffffffffff160217905550808273ffffffffffffffffffffffffffffffffffffffff16600073ffffffffffffffffffffffffffffffffffffffff167fddf252ad1be2c89b69c2b068fc378daa952ba7f163c4a11628f55a4df523b3ef60405160405180910390a45050565b60007f01ffc9a7000000000000000000000000000000000000000000000000000000007bffffffffffffffffffffffffffffffffffffffffffffffffffffffff1916827bffffffffffffffffffffffffffffffffffffffffffffffffffffffff1916149050919050565b61186c838383611b0c565b600073ffffffffffffffffffffffffffffffffffffffff168373ffffffffffffffffffffffffffffffffffffffff1614156118af576118aa81611b11565b6118ee565b8173ffffffffffffffffffffffffffffffffffffffff168373ffffffffffffffffffffffffffffffffffffffff16146118ed576118ec8382611b5a565b5b5b600073ffffffffffffffffffffffffffffffffffffffff168273ffffffffffffffffffffffffffffffffffffffff1614156119315761192c81611cc7565b611970565b8273ffffffffffffffffffffffffffffffffffffffff168273ffffffffffffffffffffffffffffffffffffffff161461196f5761196e8282611e0a565b5b5b505050565b60006119968473ffffffffffffffffffffffffffffffffffffffff16611e89565b15611aff578373ffffffffffffffffffffffffffffffffffffffff1663150b7a026119bf61100e565b8786866040518563ffffffff1660e01b81526004016119e19493929190612631565b602060405180830381600087803b1580156119fb57600080fd5b505af1925050508015611a2c57506040513d601f19601f82011682018060405250810190611a299190612248565b60015b611aaf573d8060008114611a5c576040519150601f19603f3d011682016040523d82523d6000602084013e611a61565b606091505b50600081511415611aa7576040517f08c379a0000000000000000000000000000000000000000000000000000000008152600401611a9e906126da565b60405180910390fd5b805181602001fd5b63150b7a0260e01b7bffffffffffffffffffffffffffffffffffffffffffffffffffffffff1916817bffffffffffffffffffffffffffffffffffffffffffffffffffffffff191614915050611b04565b600190505b949350505050565b505050565b6008805490506009600083815260200190815260200160002081905550600881908060018154018082558091505060019003906000526020600020016000909190919091505550565b60006001611b67846108f1565b611b719190612a26565b9050600060076000848152602001908152602001600020549050818114611c56576000600660008673ffffffffffffffffffffffffffffffffffffffff1673ffffffffffffffffffffffffffffffffffffffff168152602001908152602001600020600084815260200190815260200160002054905080600660008773ffffffffffffffffffffffffffffffffffffffff1673ffffffffffffffffffffffffffffffffffffffff168152602001908152602001600020600084815260200190815260200160002081905550816007600083815260200190815260200160002081905550505b6007600084815260200190815260200160002060009055600660008573ffffffffffffffffffffffffffffffffffffffff1673ffffffffffffffffffffffffffffffffffffffff16815260200190815260200160002060008381526020019081526020016000206000905550505050565b60006001600880549050611cdb9190612a26565b9050600060096000848152602001908152602001600020549050600060088381548110611d31577f4e487b7100000000000000000000000000000000000000000000000000000000600052603260045260246000fd5b906000526020600020015490508060088381548110611d79577f4e487b7100000000000000000000000000000000000000000000000000000000600052603260045260246000fd5b906000526020600020018190555081600960008381526020019081526020016000208190555060096000858152602001908152602001600020600090556008805480611dee577f4e487b7100000000000000000000000000000000000000000000000000000000600052603160045260246000fd5b6001900381819060005260206000200160009055905550505050565b6000611e15836108f1565b905081600660008573ffffffffffffffffffffffffffffffffffffffff1673ffffffffffffffffffffffffffffffffffffffff168152602001908152602001600020600083815260200190815260200160002081905550806007600084815260200190815260200160002081905550505050565b600080823b905060008111915050919050565b828054611ea890612b10565b90600052602060002090601f016020900481019282611eca5760008555611f11565b82601f10611ee357805160ff1916838001178555611f11565b82800160010185558215611f11579182015b82811115611f10578251825591602001919060010190611ef5565b5b509050611f1e9190611f22565b5090565b5b80821115611f3b576000816000905550600101611f23565b5090565b6000611f52611f4d846128fa565b6128d5565b905082815260208101848484011115611f6a57600080fd5b611f75848285612ace565b509392505050565b6000611f90611f8b8461292b565b6128d5565b905082815260208101848484011115611fa857600080fd5b611fb3848285612ace565b509392505050565b600081359050611fca81613138565b92915050565b600081359050611fdf8161314f565b92915050565b600081359050611ff481613166565b92915050565b60008151905061200981613166565b92915050565b600082601f83011261202057600080fd5b8135612030848260208601611f3f565b91505092915050565b600082601f83011261204a57600080fd5b813561205a848260208601611f7d565b91505092915050565b6000813590506120728161317d565b92915050565b60006020828403121561208a57600080fd5b600061209884828501611fbb565b91505092915050565b600080604083850312156120b457600080fd5b60006120c285828601611fbb565b92505060206120d385828601611fbb565b9150509250929050565b6000806000606084860312156120f257600080fd5b600061210086828701611fbb565b935050602061211186828701611fbb565b925050604061212286828701612063565b9150509250925092565b6000806000806080858703121561214257600080fd5b600061215087828801611fbb565b945050602061216187828801611fbb565b935050604061217287828801612063565b925050606085013567ffffffffffffffff81111561218f57600080fd5b61219b8782880161200f565b91505092959194509250565b600080604083850312156121ba57600080fd5b60006121c885828601611fbb565b92505060206121d985828601611fd0565b9150509250929050565b600080604083850312156121f657600080fd5b600061220485828601611fbb565b925050602061221585828601612063565b9150509250929050565b60006020828403121561223157600080fd5b600061223f84828501611fe5565b91505092915050565b60006020828403121561225a57600080fd5b600061226884828501611ffa565b91505092915050565b60006020828403121561228357600080fd5b600082013567ffffffffffffffff81111561229d57600080fd5b6122a984828501612039565b91505092915050565b6000602082840312156122c457600080fd5b60006122d284828501612063565b91505092915050565b6122e481612a5a565b82525050565b6122f381612a6c565b82525050565b60006123048261295c565b61230e8185612972565b935061231e818560208601612add565b61232781612ca9565b840191505092915050565b600061233d82612967565b6123478185612983565b9350612357818560208601612add565b61236081612ca9565b840191505092915050565b600061237682612967565b6123808185612994565b9350612390818560208601612add565b80840191505092915050565b60006123a9602b83612983565b91506123b482612cba565b604082019050919050565b60006123cc603283612983565b91506123d782612d09565b604082019050919050565b60006123ef601c83612983565b91506123fa82612d58565b602082019050919050565b6000612412602483612983565b915061241d82612d81565b604082019050919050565b6000612435601983612983565b915061244082612dd0565b602082019050919050565b6000612458602c83612983565b915061246382612df9565b604082019050919050565b600061247b603883612983565b915061248682612e48565b604082019050919050565b600061249e602a83612983565b91506124a982612e97565b604082019050919050565b60006124c1602983612983565b91506124cc82612ee6565b604082019050919050565b60006124e4602083612983565b91506124ef82612f35565b602082019050919050565b6000612507602c83612983565b915061251282612f5e565b604082019050919050565b600061252a602983612983565b915061253582612fad565b604082019050919050565b600061254d602f83612983565b915061255882612ffc565b604082019050919050565b6000612570602183612983565b915061257b8261304b565b604082019050919050565b6000612593603183612983565b915061259e8261309a565b604082019050919050565b60006125b6602c83612983565b91506125c1826130e9565b604082019050919050565b6125d581612ac4565b82525050565b60006125e7828461236b565b915081905092915050565b60006125fe828561236b565b915061260a828461236b565b91508190509392505050565b600060208201905061262b60008301846122db565b92915050565b600060808201905061264660008301876122db565b61265360208301866122db565b61266060408301856125cc565b818103606083015261267281846122f9565b905095945050505050565b600060208201905061269260008301846122ea565b92915050565b600060208201905081810360008301526126b28184612332565b905092915050565b600060208201905081810360008301526126d38161239c565b9050919050565b600060208201905081810360008301526126f3816123bf565b9050919050565b60006020820190508181036000830152612713816123e2565b9050919050565b6000602082019050818103600083015261273381612405565b9050919050565b6000602082019050818103600083015261275381612428565b9050919050565b600060208201905081810360008301526127738161244b565b9050919050565b600060208201905081810360008301526127938161246e565b9050919050565b600060208201905081810360008301526127b381612491565b9050919050565b600060208201905081810360008301526127d3816124b4565b9050919050565b600060208201905081810360008301526127f3816124d7565b9050919050565b60006020820190508181036000830152612813816124fa565b9050919050565b600060208201905081810360008301526128338161251d565b9050919050565b6000602082019050818103600083015261285381612540565b9050919050565b6000602082019050818103600083015261287381612563565b9050919050565b6000602082019050818103600083015261289381612586565b9050919050565b600060208201905081810360008301526128b3816125a9565b9050919050565b60006020820190506128cf60008301846125cc565b92915050565b60006128df6128f0565b90506128eb8282612b42565b919050565b6000604051905090565b600067ffffffffffffffff82111561291557612914612c7a565b5b61291e82612ca9565b9050602081019050919050565b600067ffffffffffffffff82111561294657612945612c7a565b5b61294f82612ca9565b9050602081019050919050565b600081519050919050565b600081519050919050565b600082825260208201905092915050565b600082825260208201905092915050565b600081905092915050565b60006129aa82612ac4565b91506129b583612ac4565b9250827fffffffffffffffffffffffffffffffffffffffffffffffffffffffffffffffff038211156129ea576129e9612bed565b5b828201905092915050565b6000612a0082612ac4565b9150612a0b83612ac4565b925082612a1b57612a1a612c1c565b5b828204905092915050565b6000612a3182612ac4565b9150612a3c83612ac4565b925082821015612a4f57612a4e612bed565b5b828203905092915050565b6000612a6582612aa4565b9050919050565b60008115159050919050565b60007fffffffff0000000000000000000000000000000000000000000000000000000082169050919050565b600073ffffffffffffffffffffffffffffffffffffffff82169050919050565b6000819050919050565b82818337600083830152505050565b60005b83811015612afb578082015181840152602081019050612ae0565b83811115612b0a576000848401525b50505050565b60006002820490506001821680612b2857607f821691505b60208210811415612b3c57612b3b612c4b565b5b50919050565b612b4b82612ca9565b810181811067ffffffffffffffff82111715612b6a57612b69612c7a565b5b80604052505050565b6000612b7e82612ac4565b91507fffffffffffffffffffffffffffffffffffffffffffffffffffffffffffffffff821415612bb157612bb0612bed565b5b600182019050919050565b6000612bc782612ac4565b9150612bd283612ac4565b925082612be257612be1612c1c565b5b828206905092915050565b7f4e487b7100000000000000000000000000000000000000000000000000000000600052601160045260246000fd5b7f4e487b7100000000000000000000000000000000000000000000000000000000600052601260045260246000fd5b7f4e487b7100000000000000000000000000000000000000000000000000000000600052602260045260246000fd5b7f4e487b7100000000000000000000000000000000000000000000000000000000600052604160045260246000fd5b6000601f19601f8301169050919050565b7f455243373231456e756d657261626c653a206f776e657220696e646578206f7560008201527f74206f6620626f756e6473000000000000000000000000000000000000000000602082015250565b7f4552433732313a207472616e7366657220746f206e6f6e20455243373231526560008201527f63656976657220696d706c656d656e7465720000000000000000000000000000602082015250565b7f4552433732313a20746f6b656e20616c7265616479206d696e74656400000000600082015250565b7f4552433732313a207472616e7366657220746f20746865207a65726f2061646460008201527f7265737300000000000000000000000000000000000000000000000000000000602082015250565b7f4552433732313a20617070726f766520746f2063616c6c657200000000000000600082015250565b7f4552433732313a206f70657261746f7220717565727920666f72206e6f6e657860008201527f697374656e7420746f6b656e0000000000000000000000000000000000000000602082015250565b7f4552433732313a20617070726f76652063616c6c6572206973206e6f74206f7760008201527f6e6572206e6f7220617070726f76656420666f7220616c6c0000000000000000602082015250565b7f4552433732313a2062616c616e636520717565727920666f7220746865207a6560008201527f726f206164647265737300000000000000000000000000000000000000000000602082015250565b7f4552433732313a206f776e657220717565727920666f72206e6f6e657869737460008201527f656e7420746f6b656e0000000000000000000000000000000000000000000000602082015250565b7f4552433732313a206d696e7420746f20746865207a65726f2061646472657373600082015250565b7f4552433732313a20617070726f76656420717565727920666f72206e6f6e657860008201527f697374656e7420746f6b656e0000000000000000000000000000000000000000602082015250565b7f4552433732313a207472616e73666572206f6620746f6b656e2074686174206960008201527f73206e6f74206f776e0000000000000000000000000000000000000000000000602082015250565b7f4552433732314d657461646174613a2055524920717565727920666f72206e6f60008201527f6e6578697374656e7420746f6b656e0000000000000000000000000000000000602082015250565b7f4552433732313a20617070726f76616c20746f2063757272656e74206f776e6560008201527f7200000000000000000000000000000000000000000000000000000000000000602082015250565b7f4552433732313a207472616e736665722063616c6c6572206973206e6f74206f60008201527f776e6572206e6f7220617070726f766564000000000000000000000000000000602082015250565b7f455243373231456e756d657261626c653a20676c6f62616c20696e646578206f60008201527f7574206f6620626f756e64730000000000000000000000000000000000000000602082015250565b61314181612a5a565b811461314c57600080fd5b50565b61315881612a6c565b811461316357600080fd5b50565b61316f81612a78565b811461317a57600080fd5b50565b61318681612ac4565b811461319157600080fd5b5056fea2646970667358221220e05317445a910c23407c7b17576d2b4bfea8505c1f2d4aeb0932c69cbb512c3c64736f6c63430008020033",
  "immutableReferences": {},
  "source": "pragma solidity 0.8.2;\n\nimport \"@openzeppelin/contracts/token/ERC721/extensions/ERC721Enumerable.sol\";\n\ncontract Color is ERC721Enumerable {\n    string[] public colors;\n    mapping(string => bool) _colorExists;\n\n    constructor() ERC721(\"Color\", \"COLOR\") public {}\n\n    // E.G. color = #FFFFFF\n    function mint(string memory _color) public {\n        require(!_colorExists[_color]);\n        colors.push(_color);\n        _mint(msg.sender, colors.length);\n        _colorExists[_color] = true;\n    }\n}",
  "sourcePath": "/Users/troycalandra/Dev/nft-wasm-display/src/contracts/Color.sol",
  "compiler": {
    "name": "solc",
    "version": "0.8.2+commit.661d1103.Emscripten.clang"
  },
  "schemaVersion": "3.3.4",
  "updatedAt": "2021-03-19T00:10:37.436Z",
  "networkType": "ethereum",
  "devdoc": {
    "kind": "dev",
    "methods": {
      "approve(address,uint256)": {
        "details": "See {IERC721-approve}."
      },
      "balanceOf(address)": {
        "details": "See {IERC721-balanceOf}."
      },
      "getApproved(uint256)": {
        "details": "See {IERC721-getApproved}."
      },
      "isApprovedForAll(address,address)": {
        "details": "See {IERC721-isApprovedForAll}."
      },
      "name()": {
        "details": "See {IERC721Metadata-name}."
      },
      "ownerOf(uint256)": {
        "details": "See {IERC721-ownerOf}."
      },
      "safeTransferFrom(address,address,uint256)": {
        "details": "See {IERC721-safeTransferFrom}."
      },
      "safeTransferFrom(address,address,uint256,bytes)": {
        "details": "See {IERC721-safeTransferFrom}."
      },
      "setApprovalForAll(address,bool)": {
        "details": "See {IERC721-setApprovalForAll}."
      },
      "supportsInterface(bytes4)": {
        "details": "See {IERC165-supportsInterface}."
      },
      "symbol()": {
        "details": "See {IERC721Metadata-symbol}."
      },
      "tokenByIndex(uint256)": {
        "details": "See {IERC721Enumerable-tokenByIndex}."
      },
      "tokenOfOwnerByIndex(address,uint256)": {
        "details": "See {IERC721Enumerable-tokenOfOwnerByIndex}."
      },
      "tokenURI(uint256)": {
        "details": "See {IERC721Metadata-tokenURI}."
      },
      "totalSupply()": {
        "details": "See {IERC721Enumerable-totalSupply}."
      },
      "transferFrom(address,address,uint256)": {
        "details": "See {IERC721-transferFrom}."
      }
    },
    "version": 1
  },
  "userdoc": {
    "kind": "user",
    "methods": {},
    "version": 1
  }
}