{
  "contractName": "Snake",
  "abi": [
    {
      "inputs": [],
      "stateMutability": "nonpayable",
      "type": "constructor"
    },
    {
      "anonymous": false,
      "inputs": [
        {
          "indexed": true,
          "internalType": "address",
          "name": "owner",
          "type": "address"
        },
        {
          "indexed": true,
          "internalType": "address",
          "name": "approved",
          "type": "address"
        },
        {
          "indexed": true,
          "internalType": "uint256",
          "name": "tokenId",
          "type": "uint256"
        }
      ],
      "name": "Approval",
      "type": "event"
    },
    {
      "anonymous": false,
      "inputs": [
        {
          "indexed": true,
          "internalType": "address",
          "name": "owner",
          "type": "address"
        },
        {
          "indexed": true,
          "internalType": "address",
          "name": "operator",
          "type": "address"
        },
        {
          "indexed": false,
          "internalType": "bool",
          "name": "approved",
          "type": "bool"
        }
      ],
      "name": "ApprovalForAll",
      "type": "event"
    },
    {
      "anonymous": false,
      "inputs": [
        {
          "indexed": true,
          "internalType": "address",
          "name": "from",
          "type": "address"
        },
        {
          "indexed": true,
          "internalType": "address",
          "name": "to",
          "type": "address"
        },
        {
          "indexed": true,
          "internalType": "uint256",
          "name": "tokenId",
          "type": "uint256"
        }
      ],
      "name": "Transfer",
      "type": "event"
    },
    {
      "inputs": [
        {
          "internalType": "address",
          "name": "to",
          "type": "address"
        },
        {
          "internalType": "uint256",
          "name": "tokenId",
          "type": "uint256"
        }
      ],
      "name": "approve",
      "outputs": [],
      "stateMutability": "nonpayable",
      "type": "function"
    },
    {
      "inputs": [
        {
          "internalType": "address",
          "name": "owner",
          "type": "address"
        }
      ],
      "name": "balanceOf",
      "outputs": [
        {
          "internalType": "uint256",
          "name": "",
          "type": "uint256"
        }
      ],
      "stateMutability": "view",
      "type": "function",
      "constant": true
    },
    {
      "inputs": [
        {
          "internalType": "uint256",
          "name": "tokenId",
          "type": "uint256"
        }
      ],
      "name": "getApproved",
      "outputs": [
        {
          "internalType": "address",
          "name": "",
          "type": "address"
        }
      ],
      "stateMutability": "view",
      "type": "function",
      "constant": true
    },
    {
      "inputs": [
        {
          "internalType": "address",
          "name": "owner",
          "type": "address"
        },
        {
          "internalType": "address",
          "name": "operator",
          "type": "address"
        }
      ],
      "name": "isApprovedForAll",
      "outputs": [
        {
          "internalType": "bool",
          "name": "",
          "type": "bool"
        }
      ],
      "stateMutability": "view",
      "type": "function",
      "constant": true
    },
    {
      "inputs": [],
      "name": "name",
      "outputs": [
        {
          "internalType": "string",
          "name": "",
          "type": "string"
        }
      ],
      "stateMutability": "view",
      "type": "function",
      "constant": true
    },
    {
      "inputs": [
        {
          "internalType": "uint256",
          "name": "tokenId",
          "type": "uint256"
        }
      ],
      "name": "ownerOf",
      "outputs": [
        {
          "internalType": "address",
          "name": "",
          "type": "address"
        }
      ],
      "stateMutability": "view",
      "type": "function",
      "constant": true
    },
    {
      "inputs": [
        {
          "internalType": "address",
          "name": "from",
          "type": "address"
        },
        {
          "internalType": "address",
          "name": "to",
          "type": "address"
        },
        {
          "internalType": "uint256",
          "name": "tokenId",
          "type": "uint256"
        }
      ],
      "name": "safeTransferFrom",
      "outputs": [],
      "stateMutability": "nonpayable",
      "type": "function"
    },
    {
      "inputs": [
        {
          "internalType": "address",
          "name": "from",
          "type": "address"
        },
        {
          "internalType": "address",
          "name": "to",
          "type": "address"
        },
        {
          "internalType": "uint256",
          "name": "tokenId",
          "type": "uint256"
        },
        {
          "internalType": "bytes",
          "name": "_data",
          "type": "bytes"
        }
      ],
      "name": "safeTransferFrom",
      "outputs": [],
      "stateMutability": "nonpayable",
      "type": "function"
    },
    {
      "inputs": [
        {
          "internalType": "address",
          "name": "operator",
          "type": "address"
        },
        {
          "internalType": "bool",
          "name": "approved",
          "type": "bool"
        }
      ],
      "name": "setApprovalForAll",
      "outputs": [],
      "stateMutability": "nonpayable",
      "type": "function"
    },
    {
      "inputs": [
        {
          "internalType": "bytes4",
          "name": "interfaceId",
          "type": "bytes4"
        }
      ],
      "name": "supportsInterface",
      "outputs": [
        {
          "internalType": "bool",
          "name": "",
          "type": "bool"
        }
      ],
      "stateMutability": "view",
      "type": "function",
      "constant": true
    },
    {
      "inputs": [],
      "name": "symbol",
      "outputs": [
        {
          "internalType": "string",
          "name": "",
          "type": "string"
        }
      ],
      "stateMutability": "view",
      "type": "function",
      "constant": true
    },
    {
      "inputs": [
        {
          "internalType": "uint256",
          "name": "tokenId",
          "type": "uint256"
        }
      ],
      "name": "tokenURI",
      "outputs": [
        {
          "internalType": "string",
          "name": "",
          "type": "string"
        }
      ],
      "stateMutability": "view",
      "type": "function",
      "constant": true
    },
    {
      "inputs": [
        {
          "internalType": "address",
          "name": "from",
          "type": "address"
        },
        {
          "internalType": "address",
          "name": "to",
          "type": "address"
        },
        {
          "internalType": "uint256",
          "name": "tokenId",
          "type": "uint256"
        }
      ],
      "name": "transferFrom",
      "outputs": [],
      "stateMutability": "nonpayable",
      "type": "function"
    },
    {
      "inputs": [
        {
          "internalType": "address",
          "name": "account",
          "type": "address"
        },
        {
          "internalType": "uint256",
          "name": "tokenId",
          "type": "uint256"
        }
      ],
      "name": "mint",
      "outputs": [],
      "stateMutability": "nonpayable",
      "type": "function"
    },
    {
      "inputs": [
        {
          "internalType": "uint256",
          "name": "tokenId",
          "type": "uint256"
        },
        {
          "internalType": "string",
          "name": "tokenURI",
          "type": "string"
        }
      ],
      "name": "setTokenURI",
      "outputs": [],
      "stateMutability": "nonpayable",
      "type": "function"
    },
    {
      "inputs": [
        {
          "internalType": "string",
          "name": "baseURI_",
          "type": "string"
        }
      ],
      "name": "setBaseURI",
      "outputs": [],
      "stateMutability": "nonpayable",
      "type": "function"
    }
  ],
  "bytecode": "0x60806040523480156200001157600080fd5b506040518060400160405280600581526020017f536e616b650000000000000000000000000000000000000000000000000000008152506040518060400160405280600581526020017f534e414b45000000000000000000000000000000000000000000000000000000815250816000908051906020019062000096929190620000b8565b508060019080519060200190620000af929190620000b8565b505050620001cd565b828054620000c69062000168565b90600052602060002090601f016020900481019282620000ea576000855562000136565b82601f106200010557805160ff191683800117855562000136565b8280016001018555821562000136579182015b828111156200013557825182559160200191906001019062000118565b5b50905062000145919062000149565b5090565b5b80821115620001645760008160009055506001016200014a565b5090565b600060028204905060018216806200018157607f821691505b602082108114156200019857620001976200019e565b5b50919050565b7f4e487b7100000000000000000000000000000000000000000000000000000000600052602260045260246000fd5b612c3c80620001dd6000396000f3fe608060405234801561001057600080fd5b50600436106101005760003560e01c806355f804b311610097578063a22cb46511610066578063a22cb465146102a9578063b88d4fde146102c5578063c87b56dd146102e1578063e985e9c51461031157610100565b806355f804b31461020f5780636352211e1461022b57806370a082311461025b57806395d89b411461028b57610100565b8063162094c4116100d3578063162094c41461019f57806323b872dd146101bb57806340c10f19146101d757806342842e0e146101f357610100565b806301ffc9a71461010557806306fdde0314610135578063081812fc14610153578063095ea7b314610183575b600080fd5b61011f600480360381019061011a9190611c54565b610341565b60405161012c91906120ef565b60405180910390f35b61013d610423565b60405161014a919061210a565b60405180910390f35b61016d60048036038101906101689190611ce7565b6104b5565b60405161017a9190612088565b60405180910390f35b61019d60048036038101906101989190611c18565b61053a565b005b6101b960048036038101906101b49190611d10565b610652565b005b6101d560048036038101906101d09190611b12565b610660565b005b6101f160048036038101906101ec9190611c18565b6106c0565b005b61020d60048036038101906102089190611b12565b6106ce565b005b61022960048036038101906102249190611ca6565b6106ee565b005b61024560048036038101906102409190611ce7565b610708565b6040516102529190612088565b60405180910390f35b61027560048036038101906102709190611aad565b6107ba565b604051610282919061232c565b60405180910390f35b610293610872565b6040516102a0919061210a565b60405180910390f35b6102c360048036038101906102be9190611bdc565b610904565b005b6102df60048036038101906102da9190611b61565b610a85565b005b6102fb60048036038101906102f69190611ce7565b610ae7565b604051610308919061210a565b60405180910390f35b61032b60048036038101906103269190611ad6565b610c39565b60405161033891906120ef565b60405180910390f35b60007f80ac58cd000000000000000000000000000000000000000000000000000000007bffffffffffffffffffffffffffffffffffffffffffffffffffffffff1916827bffffffffffffffffffffffffffffffffffffffffffffffffffffffff1916148061040c57507f5b5e139f000000000000000000000000000000000000000000000000000000007bffffffffffffffffffffffffffffffffffffffffffffffffffffffff1916827bffffffffffffffffffffffffffffffffffffffffffffffffffffffff1916145b8061041c575061041b82610ccd565b5b9050919050565b60606000805461043290612582565b80601f016020809104026020016040519081016040528092919081815260200182805461045e90612582565b80156104ab5780601f10610480576101008083540402835291602001916104ab565b820191906000526020600020905b81548152906001019060200180831161048e57829003601f168201915b5050505050905090565b60006104c082610d37565b6104ff576040517f08c379a00000000000000000000000000000000000000000000000000000000081526004016104f69061228c565b60405180910390fd5b6004600083815260200190815260200160002060009054906101000a900473ffffffffffffffffffffffffffffffffffffffff169050919050565b600061054582610708565b90508073ffffffffffffffffffffffffffffffffffffffff168373ffffffffffffffffffffffffffffffffffffffff1614156105b6576040517f08c379a00000000000000000000000000000000000000000000000000000000081526004016105ad906122ec565b60405180910390fd5b8073ffffffffffffffffffffffffffffffffffffffff166105d5610da3565b73ffffffffffffffffffffffffffffffffffffffff1614806106045750610603816105fe610da3565b610c39565b5b610643576040517f08c379a000000000000000000000000000000000000000000000000000000000815260040161063a906121cc565b60405180910390fd5b61064d8383610dab565b505050565b61065c8282610e64565b5050565b61067161066b610da3565b82610ed8565b6106b0576040517f08c379a00000000000000000000000000000000000000000000000000000000081526004016106a79061230c565b60405180910390fd5b6106bb838383610fb6565b505050565b6106ca8282611212565b5050565b6106e983838360405180602001604052806000815250610a85565b505050565b80600790805190602001906107049291906118d1565b5050565b6000806002600084815260200190815260200160002060009054906101000a900473ffffffffffffffffffffffffffffffffffffffff169050600073ffffffffffffffffffffffffffffffffffffffff168173ffffffffffffffffffffffffffffffffffffffff1614156107b1576040517f08c379a00000000000000000000000000000000000000000000000000000000081526004016107a89061220c565b60405180910390fd5b80915050919050565b60008073ffffffffffffffffffffffffffffffffffffffff168273ffffffffffffffffffffffffffffffffffffffff16141561082b576040517f08c379a0000000000000000000000000000000000000000000000000000000008152600401610822906121ec565b60405180910390fd5b600360008373ffffffffffffffffffffffffffffffffffffffff1673ffffffffffffffffffffffffffffffffffffffff168152602001908152602001600020549050919050565b60606001805461088190612582565b80601f01602080910402602001604051908101604052809291908181526020018280546108ad90612582565b80156108fa5780601f106108cf576101008083540402835291602001916108fa565b820191906000526020600020905b8154815290600101906020018083116108dd57829003601f168201915b5050505050905090565b61090c610da3565b73ffffffffffffffffffffffffffffffffffffffff168273ffffffffffffffffffffffffffffffffffffffff16141561097a576040517f08c379a00000000000000000000000000000000000000000000000000000000081526004016109719061218c565b60405180910390fd5b8060056000610987610da3565b73ffffffffffffffffffffffffffffffffffffffff1673ffffffffffffffffffffffffffffffffffffffff16815260200190815260200160002060008473ffffffffffffffffffffffffffffffffffffffff1673ffffffffffffffffffffffffffffffffffffffff16815260200190815260200160002060006101000a81548160ff0219169083151502179055508173ffffffffffffffffffffffffffffffffffffffff16610a34610da3565b73ffffffffffffffffffffffffffffffffffffffff167f17307eab39ab6107e8899845ad3d59bd9653f200f220920489ca2b5937696c3183604051610a7991906120ef565b60405180910390a35050565b610a96610a90610da3565b83610ed8565b610ad5576040517f08c379a0000000000000000000000000000000000000000000000000000000008152600401610acc9061230c565b60405180910390fd5b610ae1848484846113e0565b50505050565b6060610af282610d37565b610b31576040517f08c379a0000000000000000000000000000000000000000000000000000000008152600401610b289061226c565b60405180910390fd5b6000600660008481526020019081526020016000208054610b5190612582565b80601f0160208091040260200160405190810160405280929190818152602001828054610b7d90612582565b8015610bca5780601f10610b9f57610100808354040283529160200191610bca565b820191906000526020600020905b815481529060010190602001808311610bad57829003601f168201915b505050505090506000610bdb61143c565b9050600081511415610bf1578192505050610c34565b600082511115610c26578082604051602001610c0e929190612064565b60405160208183030381529060405292505050610c34565b610c2f846114ce565b925050505b919050565b6000600560008473ffffffffffffffffffffffffffffffffffffffff1673ffffffffffffffffffffffffffffffffffffffff16815260200190815260200160002060008373ffffffffffffffffffffffffffffffffffffffff1673ffffffffffffffffffffffffffffffffffffffff16815260200190815260200160002060009054906101000a900460ff16905092915050565b60007f01ffc9a7000000000000000000000000000000000000000000000000000000007bffffffffffffffffffffffffffffffffffffffffffffffffffffffff1916827bffffffffffffffffffffffffffffffffffffffffffffffffffffffff1916149050919050565b60008073ffffffffffffffffffffffffffffffffffffffff166002600084815260200190815260200160002060009054906101000a900473ffffffffffffffffffffffffffffffffffffffff1673ffffffffffffffffffffffffffffffffffffffff1614159050919050565b600033905090565b816004600083815260200190815260200160002060006101000a81548173ffffffffffffffffffffffffffffffffffffffff021916908373ffffffffffffffffffffffffffffffffffffffff160217905550808273ffffffffffffffffffffffffffffffffffffffff16610e1e83610708565b73ffffffffffffffffffffffffffffffffffffffff167f8c5be1e5ebec7d5bd14f71427d1e84f3dd0314c0f7b2291e5b200ac8c7c3b92560405160405180910390a45050565b610e6d82610d37565b610eac576040517f08c379a0000000000000000000000000000000000000000000000000000000008152600401610ea39061222c565b60405180910390fd5b80600660008481526020019081526020016000209080519060200190610ed39291906118d1565b505050565b6000610ee382610d37565b610f22576040517f08c379a0000000000000000000000000000000000000000000000000000000008152600401610f19906121ac565b60405180910390fd5b6000610f2d83610708565b90508073ffffffffffffffffffffffffffffffffffffffff168473ffffffffffffffffffffffffffffffffffffffff161480610f9c57508373ffffffffffffffffffffffffffffffffffffffff16610f84846104b5565b73ffffffffffffffffffffffffffffffffffffffff16145b80610fad5750610fac8185610c39565b5b91505092915050565b8273ffffffffffffffffffffffffffffffffffffffff16610fd682610708565b73ffffffffffffffffffffffffffffffffffffffff161461102c576040517f08c379a0000000000000000000000000000000000000000000000000000000008152600401611023906122ac565b60405180910390fd5b600073ffffffffffffffffffffffffffffffffffffffff168273ffffffffffffffffffffffffffffffffffffffff16141561109c576040517f08c379a00000000000000000000000000000000000000000000000000000000081526004016110939061216c565b60405180910390fd5b6110a7838383611575565b6110b2600082610dab565b6001600360008573ffffffffffffffffffffffffffffffffffffffff1673ffffffffffffffffffffffffffffffffffffffff16815260200190815260200160002060008282546111029190612498565b925050819055506001600360008473ffffffffffffffffffffffffffffffffffffffff1673ffffffffffffffffffffffffffffffffffffffff16815260200190815260200160002060008282546111599190612411565b92505081905550816002600083815260200190815260200160002060006101000a81548173ffffffffffffffffffffffffffffffffffffffff021916908373ffffffffffffffffffffffffffffffffffffffff160217905550808273ffffffffffffffffffffffffffffffffffffffff168473ffffffffffffffffffffffffffffffffffffffff167fddf252ad1be2c89b69c2b068fc378daa952ba7f163c4a11628f55a4df523b3ef60405160405180910390a4505050565b600073ffffffffffffffffffffffffffffffffffffffff168273ffffffffffffffffffffffffffffffffffffffff161415611282576040517f08c379a00000000000000000000000000000000000000000000000000000000081526004016112799061224c565b60405180910390fd5b61128b81610d37565b156112cb576040517f08c379a00000000000000000000000000000000000000000000000000000000081526004016112c29061214c565b60405180910390fd5b6112d760008383611575565b6001600360008473ffffffffffffffffffffffffffffffffffffffff1673ffffffffffffffffffffffffffffffffffffffff16815260200190815260200160002060008282546113279190612411565b92505081905550816002600083815260200190815260200160002060006101000a81548173ffffffffffffffffffffffffffffffffffffffff021916908373ffffffffffffffffffffffffffffffffffffffff160217905550808273ffffffffffffffffffffffffffffffffffffffff16600073ffffffffffffffffffffffffffffffffffffffff167fddf252ad1be2c89b69c2b068fc378daa952ba7f163c4a11628f55a4df523b3ef60405160405180910390a45050565b6113eb848484610fb6565b6113f78484848461157a565b611436576040517f08c379a000000000000000000000000000000000000000000000000000000000815260040161142d9061212c565b60405180910390fd5b50505050565b60606007805461144b90612582565b80601f016020809104026020016040519081016040528092919081815260200182805461147790612582565b80156114c45780601f10611499576101008083540402835291602001916114c4565b820191906000526020600020905b8154815290600101906020018083116114a757829003601f168201915b5050505050905090565b60606114d982610d37565b611518576040517f08c379a000000000000000000000000000000000000000000000000000000000815260040161150f906122cc565b60405180910390fd5b600061152261143c565b90506000815111611542576040518060200160405280600081525061156d565b8061154c84611711565b60405160200161155d929190612064565b6040516020818303038152906040525b915050919050565b505050565b600061159b8473ffffffffffffffffffffffffffffffffffffffff166118be565b15611704578373ffffffffffffffffffffffffffffffffffffffff1663150b7a026115c4610da3565b8786866040518563ffffffff1660e01b81526004016115e694939291906120a3565b602060405180830381600087803b15801561160057600080fd5b505af192505050801561163157506040513d601f19601f8201168201806040525081019061162e9190611c7d565b60015b6116b4573d8060008114611661576040519150601f19603f3d011682016040523d82523d6000602084013e611666565b606091505b506000815114156116ac576040517f08c379a00000000000000000000000000000000000000000000000000000000081526004016116a39061212c565b60405180910390fd5b805181602001fd5b63150b7a0260e01b7bffffffffffffffffffffffffffffffffffffffffffffffffffffffff1916817bffffffffffffffffffffffffffffffffffffffffffffffffffffffff191614915050611709565b600190505b949350505050565b60606000821415611759576040518060400160405280600181526020017f300000000000000000000000000000000000000000000000000000000000000081525090506118b9565b600082905060005b6000821461178b578080611774906125e5565b915050600a826117849190612467565b9150611761565b60008167ffffffffffffffff8111156117cd577f4e487b7100000000000000000000000000000000000000000000000000000000600052604160045260246000fd5b6040519080825280601f01601f1916602001820160405280156117ff5781602001600182028036833780820191505090505b5090505b600085146118b2576001826118189190612498565b9150600a85611827919061262e565b60306118339190612411565b60f81b81838151811061186f577f4e487b7100000000000000000000000000000000000000000000000000000000600052603260045260246000fd5b60200101907effffffffffffffffffffffffffffffffffffffffffffffffffffffffffffff1916908160001a905350600a856118ab9190612467565b9450611803565b8093505050505b919050565b600080823b905060008111915050919050565b8280546118dd90612582565b90600052602060002090601f0160209004810192826118ff5760008555611946565b82601f1061191857805160ff1916838001178555611946565b82800160010185558215611946579182015b8281111561194557825182559160200191906001019061192a565b5b5090506119539190611957565b5090565b5b80821115611970576000816000905550600101611958565b5090565b60006119876119828461236c565b612347565b90508281526020810184848401111561199f57600080fd5b6119aa848285612540565b509392505050565b60006119c56119c08461239d565b612347565b9050828152602081018484840111156119dd57600080fd5b6119e8848285612540565b509392505050565b6000813590506119ff81612baa565b92915050565b600081359050611a1481612bc1565b92915050565b600081359050611a2981612bd8565b92915050565b600081519050611a3e81612bd8565b92915050565b600082601f830112611a5557600080fd5b8135611a65848260208601611974565b91505092915050565b600082601f830112611a7f57600080fd5b8135611a8f8482602086016119b2565b91505092915050565b600081359050611aa781612bef565b92915050565b600060208284031215611abf57600080fd5b6000611acd848285016119f0565b91505092915050565b60008060408385031215611ae957600080fd5b6000611af7858286016119f0565b9250506020611b08858286016119f0565b9150509250929050565b600080600060608486031215611b2757600080fd5b6000611b35868287016119f0565b9350506020611b46868287016119f0565b9250506040611b5786828701611a98565b9150509250925092565b60008060008060808587031215611b7757600080fd5b6000611b85878288016119f0565b9450506020611b96878288016119f0565b9350506040611ba787828801611a98565b925050606085013567ffffffffffffffff811115611bc457600080fd5b611bd087828801611a44565b91505092959194509250565b60008060408385031215611bef57600080fd5b6000611bfd858286016119f0565b9250506020611c0e85828601611a05565b9150509250929050565b60008060408385031215611c2b57600080fd5b6000611c39858286016119f0565b9250506020611c4a85828601611a98565b9150509250929050565b600060208284031215611c6657600080fd5b6000611c7484828501611a1a565b91505092915050565b600060208284031215611c8f57600080fd5b6000611c9d84828501611a2f565b91505092915050565b600060208284031215611cb857600080fd5b600082013567ffffffffffffffff811115611cd257600080fd5b611cde84828501611a6e565b91505092915050565b600060208284031215611cf957600080fd5b6000611d0784828501611a98565b91505092915050565b60008060408385031215611d2357600080fd5b6000611d3185828601611a98565b925050602083013567ffffffffffffffff811115611d4e57600080fd5b611d5a85828601611a6e565b9150509250929050565b611d6d816124cc565b82525050565b611d7c816124de565b82525050565b6000611d8d826123ce565b611d9781856123e4565b9350611da781856020860161254f565b611db08161271b565b840191505092915050565b6000611dc6826123d9565b611dd081856123f5565b9350611de081856020860161254f565b611de98161271b565b840191505092915050565b6000611dff826123d9565b611e098185612406565b9350611e1981856020860161254f565b80840191505092915050565b6000611e326032836123f5565b9150611e3d8261272c565b604082019050919050565b6000611e55601c836123f5565b9150611e608261277b565b602082019050919050565b6000611e786024836123f5565b9150611e83826127a4565b604082019050919050565b6000611e9b6019836123f5565b9150611ea6826127f3565b602082019050919050565b6000611ebe602c836123f5565b9150611ec98261281c565b604082019050919050565b6000611ee16038836123f5565b9150611eec8261286b565b604082019050919050565b6000611f04602a836123f5565b9150611f0f826128ba565b604082019050919050565b6000611f276029836123f5565b9150611f3282612909565b604082019050919050565b6000611f4a602e836123f5565b9150611f5582612958565b604082019050919050565b6000611f6d6020836123f5565b9150611f78826129a7565b602082019050919050565b6000611f906031836123f5565b9150611f9b826129d0565b604082019050919050565b6000611fb3602c836123f5565b9150611fbe82612a1f565b604082019050919050565b6000611fd66029836123f5565b9150611fe182612a6e565b604082019050919050565b6000611ff9602f836123f5565b915061200482612abd565b604082019050919050565b600061201c6021836123f5565b915061202782612b0c565b604082019050919050565b600061203f6031836123f5565b915061204a82612b5b565b604082019050919050565b61205e81612536565b82525050565b60006120708285611df4565b915061207c8284611df4565b91508190509392505050565b600060208201905061209d6000830184611d64565b92915050565b60006080820190506120b86000830187611d64565b6120c56020830186611d64565b6120d26040830185612055565b81810360608301526120e48184611d82565b905095945050505050565b60006020820190506121046000830184611d73565b92915050565b600060208201905081810360008301526121248184611dbb565b905092915050565b6000602082019050818103600083015261214581611e25565b9050919050565b6000602082019050818103600083015261216581611e48565b9050919050565b6000602082019050818103600083015261218581611e6b565b9050919050565b600060208201905081810360008301526121a581611e8e565b9050919050565b600060208201905081810360008301526121c581611eb1565b9050919050565b600060208201905081810360008301526121e581611ed4565b9050919050565b6000602082019050818103600083015261220581611ef7565b9050919050565b6000602082019050818103600083015261222581611f1a565b9050919050565b6000602082019050818103600083015261224581611f3d565b9050919050565b6000602082019050818103600083015261226581611f60565b9050919050565b6000602082019050818103600083015261228581611f83565b9050919050565b600060208201905081810360008301526122a581611fa6565b9050919050565b600060208201905081810360008301526122c581611fc9565b9050919050565b600060208201905081810360008301526122e581611fec565b9050919050565b600060208201905081810360008301526123058161200f565b9050919050565b6000602082019050818103600083015261232581612032565b9050919050565b60006020820190506123416000830184612055565b92915050565b6000612351612362565b905061235d82826125b4565b919050565b6000604051905090565b600067ffffffffffffffff821115612387576123866126ec565b5b6123908261271b565b9050602081019050919050565b600067ffffffffffffffff8211156123b8576123b76126ec565b5b6123c18261271b565b9050602081019050919050565b600081519050919050565b600081519050919050565b600082825260208201905092915050565b600082825260208201905092915050565b600081905092915050565b600061241c82612536565b915061242783612536565b9250827fffffffffffffffffffffffffffffffffffffffffffffffffffffffffffffffff0382111561245c5761245b61265f565b5b828201905092915050565b600061247282612536565b915061247d83612536565b92508261248d5761248c61268e565b5b828204905092915050565b60006124a382612536565b91506124ae83612536565b9250828210156124c1576124c061265f565b5b828203905092915050565b60006124d782612516565b9050919050565b60008115159050919050565b60007fffffffff0000000000000000000000000000000000000000000000000000000082169050919050565b600073ffffffffffffffffffffffffffffffffffffffff82169050919050565b6000819050919050565b82818337600083830152505050565b60005b8381101561256d578082015181840152602081019050612552565b8381111561257c576000848401525b50505050565b6000600282049050600182168061259a57607f821691505b602082108114156125ae576125ad6126bd565b5b50919050565b6125bd8261271b565b810181811067ffffffffffffffff821117156125dc576125db6126ec565b5b80604052505050565b60006125f082612536565b91507fffffffffffffffffffffffffffffffffffffffffffffffffffffffffffffffff8214156126235761262261265f565b5b600182019050919050565b600061263982612536565b915061264483612536565b9250826126545761265361268e565b5b828206905092915050565b7f4e487b7100000000000000000000000000000000000000000000000000000000600052601160045260246000fd5b7f4e487b7100000000000000000000000000000000000000000000000000000000600052601260045260246000fd5b7f4e487b7100000000000000000000000000000000000000000000000000000000600052602260045260246000fd5b7f4e487b7100000000000000000000000000000000000000000000000000000000600052604160045260246000fd5b6000601f19601f8301169050919050565b7f4552433732313a207472616e7366657220746f206e6f6e20455243373231526560008201527f63656976657220696d706c656d656e7465720000000000000000000000000000602082015250565b7f4552433732313a20746f6b656e20616c7265616479206d696e74656400000000600082015250565b7f4552433732313a207472616e7366657220746f20746865207a65726f2061646460008201527f7265737300000000000000000000000000000000000000000000000000000000602082015250565b7f4552433732313a20617070726f766520746f2063616c6c657200000000000000600082015250565b7f4552433732313a206f70657261746f7220717565727920666f72206e6f6e657860008201527f697374656e7420746f6b656e0000000000000000000000000000000000000000602082015250565b7f4552433732313a20617070726f76652063616c6c6572206973206e6f74206f7760008201527f6e6572206e6f7220617070726f76656420666f7220616c6c0000000000000000602082015250565b7f4552433732313a2062616c616e636520717565727920666f7220746865207a6560008201527f726f206164647265737300000000000000000000000000000000000000000000602082015250565b7f4552433732313a206f776e657220717565727920666f72206e6f6e657869737460008201527f656e7420746f6b656e0000000000000000000000000000000000000000000000602082015250565b7f45524337323155524953746f726167653a2055524920736574206f66206e6f6e60008201527f6578697374656e7420746f6b656e000000000000000000000000000000000000602082015250565b7f4552433732313a206d696e7420746f20746865207a65726f2061646472657373600082015250565b7f45524337323155524953746f726167653a2055524920717565727920666f722060008201527f6e6f6e6578697374656e7420746f6b656e000000000000000000000000000000602082015250565b7f4552433732313a20617070726f76656420717565727920666f72206e6f6e657860008201527f697374656e7420746f6b656e0000000000000000000000000000000000000000602082015250565b7f4552433732313a207472616e73666572206f6620746f6b656e2074686174206960008201527f73206e6f74206f776e0000000000000000000000000000000000000000000000602082015250565b7f4552433732314d657461646174613a2055524920717565727920666f72206e6f60008201527f6e6578697374656e7420746f6b656e0000000000000000000000000000000000602082015250565b7f4552433732313a20617070726f76616c20746f2063757272656e74206f776e6560008201527f7200000000000000000000000000000000000000000000000000000000000000602082015250565b7f4552433732313a207472616e736665722063616c6c6572206973206e6f74206f60008201527f776e6572206e6f7220617070726f766564000000000000000000000000000000602082015250565b612bb3816124cc565b8114612bbe57600080fd5b50565b612bca816124de565b8114612bd557600080fd5b50565b612be1816124ea565b8114612bec57600080fd5b50565b612bf881612536565b8114612c0357600080fd5b5056fea264697066735822122054f902320048f7e4f84bd1db4f091eda3430dd04ad4d6888df921f846257884064736f6c63430008020033",
  "immutableReferences": {},
  "source": "// SPDX-License-Identifier: MIT\npragma solidity ^0.8.2;\n\nimport \"@openzeppelin/contracts/token/ERC721/extensions/ERC721URIStorage.sol\";\n\n\ncontract Snake is ERC721URIStorage {\n    string baseURI;\n    \n    constructor() ERC721(\"Snake\", \"SNAKE\") {}\n    \n    function mint(\n        address account,\n        uint256 tokenId\n    ) external {\n        _mint(account, tokenId);\n    }\n    \n    function setTokenURI(\n        uint256 tokenId, \n        string memory tokenURI\n    ) external {\n        _setTokenURI(tokenId, tokenURI);\n    }\n    \n    function setBaseURI(string memory baseURI_) external {\n        baseURI = baseURI_;\n    }\n    \n    function _baseURI() internal view override returns (string memory) {\n        return baseURI;\n    }\n}",
  "sourcePath": "/Users/troycalandra/Dev/basic_nft/src/contracts/Snake.sol",
  "compiler": {
    "name": "solc",
    "version": "0.8.2+commit.661d1103.Emscripten.clang"
  },
  "schemaVersion": "3.3.4",
  "updatedAt": "2021-04-08T18:41:02.957Z",
  "networkType": "ethereum",
  "devdoc": {
    "kind": "dev",
    "methods": {
      "approve(address,uint256)": {
        "details": "See {IERC721-approve}."
      },
      "balanceOf(address)": {
        "details": "See {IERC721-balanceOf}."
      },
      "getApproved(uint256)": {
        "details": "See {IERC721-getApproved}."
      },
      "isApprovedForAll(address,address)": {
        "details": "See {IERC721-isApprovedForAll}."
      },
      "name()": {
        "details": "See {IERC721Metadata-name}."
      },
      "ownerOf(uint256)": {
        "details": "See {IERC721-ownerOf}."
      },
      "safeTransferFrom(address,address,uint256)": {
        "details": "See {IERC721-safeTransferFrom}."
      },
      "safeTransferFrom(address,address,uint256,bytes)": {
        "details": "See {IERC721-safeTransferFrom}."
      },
      "setApprovalForAll(address,bool)": {
        "details": "See {IERC721-setApprovalForAll}."
      },
      "supportsInterface(bytes4)": {
        "details": "See {IERC165-supportsInterface}."
      },
      "symbol()": {
        "details": "See {IERC721Metadata-symbol}."
      },
      "tokenURI(uint256)": {
        "details": "See {IERC721Metadata-tokenURI}."
      },
      "transferFrom(address,address,uint256)": {
        "details": "See {IERC721-transferFrom}."
      }
    },
    "version": 1
  },
  "userdoc": {
    "kind": "user",
    "methods": {},
    "version": 1
  }
}